:020000040800F2
:1000000000C00020A5030008D10A0008D50A000896
:10001000D90A0008DD0A0008E10A00083B140008BC
:100020003B1400083B1400083B1400083B14000874
:100030003B1400083B1400083B1400084D14000852
:100040003B1400083B1400083B1400083B14000854
:100050003B1400083B140008990B00089F0B000894
:10006000A50B0008AB0B0008B10B0008E509000860
:10007000F5090008050A0008150A0008250A000805
:10008000350A0008450A0008D50700083B14000897
:10009000B51C00083B1400083B140008B70B00080F
:1000A0003518000845180008511800085D180008A8
:1000B000691800087518000881180008291100083F
:1000C00041110008351100084D1100083B140008CB
:1000D0003B140008752F0008D92F00083D30000898
:1000E000BF0B00083B1400083B140008B1180008BF
:1000F000C1180008CD180008D91800082D080008FC
:100100003B1400083B1400088D1800083B1400083D
:10011000811B0008991B000899180008A518000801
:10012000550A0008650A0008750A0008850A0008D3
:1001300010B5054C237833B9044B13B10448AFF321
:1001400000800123237010BDC011002000000000BA
:1001500024DE020808B5034B1BB103490348AFF383
:10016000008008BD00000000C411002024DE020849
:1001700010B512490A2309220968114800F0EAF96A
:1001800010490323022209680F4800F0E3F90F49E0
:100190001B231A2209680E4800F0DCF90D492B23B5
:1001A0002A2209680C4800F0D5F9BDE810400B4937
:1001B00032232C2209680A4800F0CCB9A80200209A
:1001C000DC110020AC020020F4110020B00200205D
:1001D0000C120020A002002024120020A402002003
:1001E0003C12002010B5044600F076FB034B20467D
:1001F000BDE81040197800F0D7BA00BF1200002007
:10020000F8B50446056801F0FFF9002223685B0198
:1002100003F184431A6080232B600123AB622A61BF
:10022000EA606B61637973B1012B0FD001222368FF
:100230005B0103F18443C3F8802223685B0103F16F
:1002400084431A60F8BD4FF400436B644FF6FF72AD
:1002500000252368DA626E1CF7B23946204601F0A9
:10026000E8F9E8B148F6FF72236817F0010F03F1CF
:10027000340343F8252014BF6FF0FF026FF47F4270
:1002800023684FEA650503F1180353F8251001EAC6
:10029000020114BF68224FF4D0420A4343F82520DC
:1002A000042E3546D7D1C1E77047000038B5002588
:1002B000264A274C1368022043F01003136000F015
:1002C00083FC002000F0AEFF65602368182023F453
:1002D0000023236000F0B2FF102000F0AFFF00F019
:1002E00043F8A560102000F09DFF102000F0B4FF3F
:1002F0000028FAD000F039F8164800F0B9FF1820AD
:1003000000F090FF182000F0A7FF0028FAD002208C
:1003100000F078FF00214FF0006000F049FF0E4828
:1003200001F08CF800F038F80C4B188800F0BCFA9B
:100330000B4800F0BDFA0B4801F040F900F02EF830
:1003400000F02DF8FFF7B0FF38BD00BF00200240DD
:1003500000100240080000203F190100100000209A
:10036000E5010008010200087047002108B50846B1
:1003700000F0BEFF4FF48061012000F0B9FF0021C2
:10038000022000F0B5FF2D2000F0C2FFBDE80840BC
:100390000021032000F0ACBF00F02ABC704700F041
:1003A00066BC000001498D460149084700C0002095
:1003B000B503000808B5114B1A68114B9A4213D1C6
:1003C000104B114A934213D326F014FE002211461B
:1003D000104602F0C7FB0D4B7BB126F0A7FB52F88D
:1003E000041B043343F8041C09498B42F7D3E7E7A5
:1003F0000022043343F8042CE3E7FEE70844030833
:1004000000000020C0110020483200202D6B02089F
:10041000C011002010B50D4B1A680AB90C4A1A60B9
:100420001A680C49891A814204DB09494442511A6D
:10043000A14207DA26F074FB0C234FF0FF32036071
:10044000104610BD10441860FAE700BF5412002097
:1004500048320020F0B10328002070474FF40053C9
:1004600000204B607047012070474FF0FF3070470D
:100470000020704710B50C46FFF7FAFF20700120EE
:1004800010BD704770B515460C468E18B44201D1A8
:10049000284670BD14F8010BFFF7F3FFF6E7FEE7FF
:1004A000C38882889B1AC2888188914282BF028950
:1004B00001329B1898B2704710B50369044658681A
:1004C000FFF7EEFF88B123695B689A88196892B2DA
:1004D000885C99881A89C0B292B28A420FBF002202
:1004E0009A88013292B29A8010BD4FF0FF30FBE73C
:1004F00008B503695868FFF7D3FF08BD03695B6857
:100500009988DA8892B28A421FBF9A881B6892B291
:10051000985C14BFC0B24FF0FF3070470269916819
:100520008888CB889BB28342FAD1126813685B0635
:10053000FCD5704713B504698DF8071001220DF141
:100540000701204601F01BFA0028F7D0012002B075
:1005500010BD000030B54FF0000C4FF47A75C0E9C3
:1005600001C5034D016105600275437530BD00BFD3
:1005700028F502082DE9F74303690446DB6888463D
:100580008B42914625D3067D134D3601AB19477D2D
:10059000586818B10022597B01F002F9206901F076
:1005A000A1F939016A18127BAB19CDF804901B7BB5
:1005B000695800932069AB5901F081FA20694246DD
:1005C000002101F0A2FA206903B0BDE8F04301F078
:1005D000B1B903B0BDE8F083F0F10208044B027931
:1005E0001B789A4202BF034B1B681860704700BF1C
:1005F000781200207C120020002310B5044603600E
:1006000072B6054B19311970044B1860044800F09C
:10061000D5FF62B6204610BD781200207C12002063
:10062000DD050008002203681B685B0103F18443B9
:100630001A607047012203681B685B0103F1844361
:100640001A607047036801391B6889B29962704764
:1006500003681A68D36A9BB2994228BF194651624F
:10066000704738B561B9012203681B689962036855
:100670001B68DA6203681B68DC6AA4B2204638BDD6
:1006800048224A434FF6FF71B2FBF1F1013189B2C2
:1006900002EB5102B2FBF1F294B2FFF7D3FF036811
:1006A00092B21B68DA62E9E7C9B2006800F0DABF0B
:1006B000012203681B685B0103F18443C3F88022B5
:1006C0007047000008B501211048FFF795FF02218F
:1006D0000F48FFF791FF03210E48FFF78DFF04211C
:1006E0000D48FFF789FF05210C48FFF785FF06211C
:1006F0000B48FFF781FF07210A48FFF77DFFBDE8A0
:10070000084008210848FFF777BF00BF58120020B3
:100710005C12002060120020641200206812002089
:100720006C1200207012002074120020F8B50646EA
:100730000C4615468F18A74206D0336814F8011BE3
:100740001B6830469847F6E72846F8BD70B5054661
:100750000C46084649B127F001FD2B6802462146A8
:100760002846BDE870409B68184770BD0368C9B251
:100770001B68184710B50C4627F092FC204610BDA8
:10078000704710B50446007900F080FD2079BDE87F
:10079000104000F093BD026841F48011936823F487
:1007A0006023194391607047002330B51C461D46F5
:1007B00003EB4302072B01FA02F203F10103D8BF56
:1007C00015430A2B44EA0204F2D10368DD60036892
:1007D0001C6130BD70B5144C23681B681D68A907E7
:1007E00007D51A6822F002021A6023689B6803B1D9
:1007F00098476A0709D523681A68136823F0040329
:10080000136023681B6903B19847EB070BD5236876
:100810001A68136823F0010313602368DB6813B1BF
:10082000BDE87040184770BD1800002070B5144C2A
:1008300023681B681D68A90707D51A6822F0020201
:100840001A6023689B6803B198476A0709D5236833
:100850001A68136823F00403136023681B6903B14B
:100860009847EB070BD523681A68136823F0010338
:1008700013602368DB6813B1BDE87040184770BD92
:1008800020000020012203685B0103F1844303F58B
:100890008673191F1A6018680028FCD143F8042CCD
:1008A0000B68002BFCD170470146042000F020BDEE
:1008B00010B50446054B1868A047054B1868A047BB
:1008C000044B18682346BDE8104018471800002064
:1008D0001C0000202000002010B50446FFF751FF47
:1008E00020464FF46021FFF756FF0122236820467F
:1008F0005B0103F18443C3F8502123685B0103F1DA
:100900008443C3F80021BDE81040FFF7BBBF007966
:1009100000F0BCBC38B550F8313005464C1E2BB148
:10092000984701232A68A400A340536038BD1423CC
:100930000139594300680830435823F4405343EACF
:10094000023242507047036814200833013900FB1B
:1009500001314A607047000000EBC10340F83120CC
:1009600093F90430002B08DB0122591103F01F0317
:1009700002FA03F3014A42F82130704700E100E037
:1009800014220368013902FB01310123490101F1FD
:100990008441C1F80031704714220368013902FB19
:1009A00001310023490101F18441C1F80031704750
:1009B0002DE9F04114251C4690464B1E5D43066808
:1009C000FFF7EAFF9DF81C30240244EA8324089BC9
:1009D00008361C43069B77197451FB60C7F80880E2
:1009E000BDE8F081024B01211868FFF793BF00BFFB
:1009F0005C000020024B02211868FFF78BBF00BF8C
:100A00005C000020024B03211868FFF783BF00BF82
:100A10005C000020024B04211868FFF77BBF00BF79
:100A20005C000020024B05211868FFF773BF00BF70
:100A30005C000020024B06211868FFF76BBF00BF67
:100A40005C000020024B07211868FFF763BF00BF5E
:100A50005C000020024B01211868FFF75BBF00BF5C
:100A600060000020024B02211868FFF753BF00BF4F
:100A700060000020024B03211868FFF74BBF00BF46
:100A80006000002010B50D4C636CD80707D52368B3
:100A9000D90404D50A4B04211868FFF73BFFA36D66
:100AA000DA0709D52368DB0306D5BDE81040044BFF
:100AB00005211868FFF72EBF10BD00BF00040240DB
:100AC00060000020000000000000000000000000A6
:100AD000012007E0022005E0032003E0042001E0FC
:100AE0000520FFE70D4A0121116072B60C4A002172
:100AF0001160074902B4084902B486B005498E4620
:100B0000704700BFAFF30080AFF30080AFF3008009
:100B100000000061F9FFFFFF312B000814ED00E039
:100B200010E000E010B5084B044653F830204AB1FD
:100B300003EBC003586890470120044BA040586164
:100B400000BF00BF10BD00BF8012002000040140A4
:100B50002DE9F8430446884600270D4DD5F814903A
:100B6000444504D96F6100BF00BFBDE8F88301268A
:100B7000A64019EA060F08D0064BE10053F83420CE
:100B80001AB10B445868904737430134E8E700BF77
:100B900000040140801200200020FFF7C3BF0120A5
:100BA000FFF7C0BF0220FFF7BDBF0320FFF7BABFAA
:100BB0000420FFF7B7BF09210520FFF7C9BF0F21A8
:100BC0000A20FFF7C5BF0000034A136823F007039C
:100BD00018431060704700BF0020024010B5044663
:100BE000007900F053FB2079BDE8104000F066BBAF
:100BF00008B50748FFF7F2FF0648FFF7EFFF064882
:100C0000FFF7ECFFBDE808400448FFF7E7BF00BF6F
:100C1000D4000020DC000020E4000020EC000020D4
:100C200070B50F250368CE0801F00700840053F863
:100C30002600092A05FA04F520EA050514BF104626
:100C40000820A0402843082A43F8260007D10120A5
:100C5000DA6800FA01F122EA0101D96070BD092ABF
:100C6000FCD10122D86802FA01F10143F5E708B589
:100C7000032000F00BFBBDE80840032000F01EBB82
:100C80000268536823EA0101516070477FB500256F
:100C9000036804461A6801925A690292914A0395C0
:100CA0001268C260426A920600F1D080426862B166
:100CB00050889588C607029940F19D80C90706D5DE
:100CC0001288520042F001021A6104B070BD02990C
:100CD0008E072DD5012D019A13DC22F4806201923A
:100CE0001A60226893690393019B43F40073019394
:100CF0001360002D33D02268536843F4806353603F
:100D0000E3E7022D0CD142F4006201921A602268DE
:100D100093690393019B23F4806301931360EAE7D3
:100D200042F4806201921A6023689B690393E2E7B0
:100D300002980299400601F0040133D5002933D10D
:100D4000032D01DC012D24D11869D38891685E1C24
:100D5000D680C8549388013B9380012DB5DCA38BCA
:100D6000013B9BB2A383002B6BD04FF480612046E4
:100D7000FFF786FF636803F10C026260DB8913F002
:100D8000010F14BF40F2015240F2011223681A60B1
:100D90009BE7AB1E012BE0D84FF480612046FFF7A4
:100DA0006FFFDAE7002990D0032D1ED1019921F4BD
:100DB000806101911960236891681869D388022DB8
:100DC00003F10106D680C854938803F1FF33938062
:100DD0007FF47BAF236891681869D3885D1CD58048
:100DE000C8549388013B9380B9E7022DE3D1019960
:100DF00041F40071DDE7CE0709D51DB1596841F412
:100E000080615960138822685B0013615DE7029975
:100E1000890744BF996903910299029E01F08001FC
:100E2000760700F11981002940F02B81002D7FF415
:100E30004CAF41075FBF019A42F4007201921A6001
:100E40008DE76360022384F823303EE7029A92071D
:100E50004AD59A6985600392039AD6060FD4039AFD
:100E600012F0800F9A6830D010042AD59D68DB6894
:100E700025F0FE05AD05AD0D03F0FE031D43039BFC
:100E8000606B13F0040326D038B1C3882BB1E36A3A
:100E900003B198470022636BDA80236B53B11D8046
:100EA0000023226B1D469380A26A0AB1206B9047F3
:100EB000236BDD802268536843F48063536003230F
:100EC000C1E7DD68C5F34605D9E711049D68F9D58A
:100ED000C5F30905D3E70028ECD00580626BD38009
:100EE000E8E700BFE0310020029AD20615D59B69E1
:100EF000406B039338B1C3882BB1E36A03B19847C1
:100F00000022636BDA80019B226843F480630193C3
:100F100011680B431360012395E70298029A00F0D1
:100F2000040012F0800218BF5A68996918BFC2F312
:100F300080220391039911F004010DD0216B002947
:100F40006DD08B88CD885B1B002A6DD100283FF4C3
:100F5000BCAE8DF802206AE08DF80310029A12F000
:100F6000400214BF59681146626B18BFC1F380215B
:100F7000EAB19688D588751BD9B1E8B9002D0EDD88
:100F80001B699168DBB28DF80330D388032D03F120
:100F90000100D0809DF80320CA543FF796AE4FF46D
:100FA0008061204604B0BDE87040FFF769BE154679
:100FB000E2E700283FF489AE032D26D1019A22F4FE
:100FC000806201921A602368002D1B69DBB28DF8E4
:100FD000033007DD636BDA889868561CDE809DF865
:100FE0000330835400293FF470AE2368012D1B6940
:100FF000DBB28DF80330D2DD636BDA889968501C60
:10100000D8809DF803308B54C9E7022DDBD1019ABB
:1010100042F40072D5E7002A3FF457AEBFE74AB367
:101020008DF802100B4609E000208DF802002BB16C
:1010300088686E1CCE80415D8DF802109DF802100C
:101040002068C9B20161002BE5D0002A3FF43DAE13
:10105000012B7FF43AAEA2E799B9002D3FF4E9AE37
:10106000D3889068591CD1802168C35C013D0B6115
:1010700095802AE600283FF428AE8DF8022013461A
:10108000DCE7002D3FF4D5AED3889068591CD180A1
:10109000C35C2168012D0B6105F1FF339380D8E714
:1010A00013B5036804465A6900929A6901921D4A71
:1010B0001268C260009A02F470628260426A92060C
:1010C0001ED54FF48061FFF7DBFD0268136843F41F
:1010D00080631360009B590519D56FF48062036823
:1010E0005A61406B38B1C3882BB1E36A03B19847AA
:1010F0000022636BDA80012384F8233002B010BD34
:10110000009A520542BF1A6842F400721A60002326
:101110002268536122689361FF2384F82330019B86
:10112000ECE700BFE03100200148FFF7AFBD00BF92
:10113000F40000200148FFF7A9BD00BF2C010020EA
:101140000148FFF7ADBF00BFF40000200148FFF7E2
:10115000A7BF00BF2C01002045F25552054B1A6075
:101160004CF6CC42586099601A604AF6AA221A607E
:10117000704700BF003000404AF6AA22014B1A60B7
:10118000704700BF003000400028A8BF00F1604059
:101190004FEA0111B8BF054BC9B2B5BF00F00F004F
:1011A00000F56140195480F80013704714ED00E019
:1011B00010B5002421F0604121F07F01064A01436F
:1011C000916060B20F210134FFF7DEFF3C2CF8D1B3
:1011D000F02382F8233010BD00ED00E00449054BF8
:1011E000CA6802F4E0621343CB60BFF34F8FFEE79F
:1011F00000ED00E00400FA05014B13F81000704701
:1012000060F50208064B5A6822F0030202435A6056
:1012100080005A6802F00C028242FAD1704700BF87
:1012200000100240030AC2B2012003F1804303F51B
:101230000433196890400843186070470121030A7D
:1012400003F1804303F504331A68C0B201FA00F0D9
:1012500022EA000018607047030A03F1804303F597
:1012600004331A680223C0B203FA00F0104070473A
:10127000054A0168536823F474130B4341680968F5
:101280000B435360704700BF0010024010B5044686
:10129000FFF7B2FF074B53F82020074800EB44004C
:1012A000437803EBC20301229B0003F184431A60DD
:1012B00010BD00BF6401002060F5020810B50446AF
:1012C000FFF79AFF084B53F82020084800EB440032
:1012D000437803EBC20301229B0003F184431A60AD
:1012E00000221A6010BD00BF7C01002060F50208DA
:1012F00010B5054A054C536854F8200023EA000352
:101300000B43536010BD00BF001002404CF50208B3
:1013100010B50446FFF770FF074B53F8202007482D
:1013200000EB4400437803EBC20300229B0003F16F
:1013300084431A6010BD00BF7001002060F50208F0
:1013400001EBC000800000F184400260704710B5DE
:1013500004460079FFF79AFF2079BDE81040FFF7B7
:10136000ADBF012206210068FFF7EABF0022062177
:101370000068FFF7E5BF10B50C46016803464A68F0
:1013800022F0E0024A6002681268624012F4205FB4
:1013900001D0FFF7EBFF1A6818461460BDE8104053
:1013A000FFF7DFBF134343F004031943FFF7E3BF25
:1013B0000122006811460430FFF7C2BF0068002216
:1013C00001210430FFF7BCBF006801220021043076
:1013D000FFF7B6BF002203685B0103F18443C3F843
:1013E00080207047F8B51046069C9DF81C709DF84B
:1013F00020609DF8245081B10B2239462046FFF72A
:101400000FFC042231462046FFF70AFC0B22294636
:101410002046BDE8F840FFF703BC19460422FFF759
:10142000FFFB042239462046FFF7FAFB0B22314628
:101430002046FFF7F5FB0422E9E7FEE70722024B0F
:1014400058601A60704700BF10E000E0044A13685B
:1014500001331360034B1B6803B11847704700BF8B
:10146000E03100200013002011F0010F70B501F1F0
:10147000FF340DBF082500256FF0FF016FF47F4199
:101480000068C4F34004183050F82460134331401E
:10149000AB400B4340F8243070BD38B514460568A6
:1014A000EB682A691340234206D0023150F82130FC
:1014B00013B1E44398472C6138BD01220021FFF7A6
:1014C000ECBFF8B506680746F56833691D4015F0AE
:1014D000400403D0046A0CB1A0474024AB0604D5F5
:1014E000FB6913B1984744F02004E4433461F8BD2C
:1014F000F8B507680646FD683B691D4015F0100405
:1015000003D084690CB1A0471024290704D573695E
:1015100013B1984744F008046A0704D5336913B13E
:10152000984744F00404AB0704D5F36813B1984717
:1015300044F00204E4433C61F8BDF8B50768064690
:10154000FD683B691D4015F0400403D0046A0CB1EE
:10155000A0474024EB0604D5B36913B1984744F083
:101560001004280704D5736913B1984744F00804A0
:10157000690704D5336913B1984744F00404AA07F6
:1015800004D5F36813B1984744F00204EB0704D57F
:10159000B36813B1984744F00104E4433C61F8BDDB
:1015A00002684B1E02F1404220329B0003EBC20353
:1015B00001229B0003F184431A60704710B5044672
:1015C0000948A0470948A0470948A0470948A0473B
:1015D0000948A0470948A0470948A0472346BDE855
:1015E00010400848184700BFA8010020D001002083
:1015F000F4010020180200203C02002060020020BC
:101600006C0200207802002010B504460079FFF734
:101610003DFE2079BDE81040FFF750BE0023026870
:1016200013600268D3604279012A9CBF026813628A
:10163000704703791E2B10D9212B0ED0202B0ED9E9
:10164000222B01D0252B04D102298CBF00200120A0
:1016500070474B1E58425841704701207047002088
:10166000704700008B1C40F82320012342798B40F7
:1016700010B5DB43EAB1012A41F65F6218BF0122CF
:101680001340012204682361036803F140430C33D3
:1016900001EBC3039B0003F184431A604279037991
:1016A0003ABB072915D8DFE801F007151515151AFB
:1016B0001A1F41F6FF62E3E71A2B0CBF19232C23F4
:1016C0000122590903F01F0302FA03F3254A42F8E5
:1016D000213010BD1A2B0CBF1B232E23F0E71A2B31
:1016E0000CBF1A232D23EBE71A2B0CBF18232B2337
:1016F000E6E71B3B0C2BECD801A252F823F000BF0D
:101700006117000835170008391700083D17000851
:101710004117000845170008D316000849170008AC
:101720004D170008511700085517000859170008F1
:101730005D1700081D23C3E71E23C1E73223BFE75F
:101740003623BDE73723BBE71823B9E71923B7E7EB
:101750001A23B5E72B23B3E72C23B1E72D23AFE7FB
:101760001C23ADE700E100E00022036803F14043E1
:101770000C3301EBC3039B0003F1844302311A6075
:1017800040F82120704738B504460D461346002224
:10179000FFF76AFE29462046BDE83840FFF700BF44
:1017A00038B543790546022B0C4615D0042A13D8C8
:1017B000DFE802F003132A2D3A00FFF7D5FF026895
:1017C000631E02F1404220329B0003EBC203002261
:1017D0009B0003F184431A6038BD0022036803F1C3
:1017E00040430C3301EBC3039B0003F184431A60B5
:1017F0000823602221462846FFF736FE2146284668
:10180000BDE83840FFF7CCBE00231022F2E74FF2CC
:10181000F11203689A61032203689A600368012247
:101820005B0103F18443D6E70122BDE83840FFF7AE
:10183000AABF0000802207210148FFF72EBE00BF8B
:10184000A80100200148FFF738BE00BFA801002012
:101850000148FFF736BE00BFA80100200148FFF78E
:1018600047BE00BFA80100200148FFF766BE00BFC9
:10187000D00100200148FFF760BE00BFF401002046
:101880000148FFF75ABE00BF180200200148FFF7C9
:1018900054BE00BF3C0200200148FFF70EBE00BF4F
:1018A000600200200148FFF708BE00BF6C02002064
:1018B000802207210148FFF7F0BD00BF7802002019
:1018C0000148FFF7FABD00BF780200200148FFF78A
:1018D000F8BD00BF780200200148FFF709BE00BF35
:1018E0007802002000227F2110B5436804469A80C8
:1018F000DA80198100F11001196083689A80DA801A
:101900003F221A8100F190021A6090F8D000FFF790
:10191000BDFC94F9D130002B08DB0122591103F0F2
:101920001F0302FA03F3024A42F8213010BD00BF40
:1019300000E100E00368DA6842F02C02DA60DA685D
:1019400042F40052DA60704710B5036881688C88F1
:10195000CA8892B2A242FAD1DA68910402D51A6812
:101960005206F9D5DA6822F40052DA6042689388A8
:101970009BB2D380826893889BB2D38010BDF0B5B0
:101980000B4606460468B568581AAF88ED88ADB2B4
:10199000BD4204D125682D0601D5824210D8E368E6
:1019A00023F08003E3609042B3680DD39A88DB880C
:1019B0009BB293421EBFE36843F08003E360F0BD37
:1019C00013F8010B6060DEE7DD889F880135BD42BA
:1019D000ECD0DF881D89ADB2BD4203D19D88ADB288
:1019E000002DE3D0DD8811F800C01F68ADB207F804
:1019F00005C0DF881D890130ADB2BD420FBF002593
:101A0000DD880135ADB2DD80CDE7D36870B59B06CA
:101A100009D513689E0606D513689D0702D413687E
:101A2000DC071CD55368D368180617D513681B0646
:101A300014D58888CB889BB283423BD08B880868BA
:101A40009BB2C05C8C880B89C0B29BB2A3420FBF13
:101A500000238B8801339BB28B80506070BD54682B
:101A6000C38885880133AB42E4B2056807D0C688D5
:101A700003899BB2B3420FD183889BB263B9838839
:101A80009BB2EB5C868803899BB2B3420FBF0023F5
:101A9000838801339BB28380C3889BB2EC54C48893
:101AA00003899BB2A3420FBF0023C38801339BB2BB
:101AB000C380B8E7D36823F08003D360CEE770B566
:101AC0001E460546084611460422059CFFF7A8F865
:101AD0000B229DF810103046FFF7A2F82968630228
:101AE000CA6803F4F05322F4F0521204120C1343A8
:101AF000CB602A682402136904F4405423F4405351
:101B00001B041B0C1C43146170BD38B505461446FC
:101B100011B900F04DF8014619235943A200B1FB59
:101B2000F2F26421B2FBF1F001FB10231B0132330E
:101B3000B3FBF1F303F00F032C6843EA00139BB2ED
:101B4000A36038BD10B50446084B1868A047084B81
:101B50001868A047074B1868A047074B1868A047AC
:101B6000064B18682346BDE810401847A80200201D
:101B7000AC020020B0020020A0020020A40200203D
:101B8000024A03490348FFF740BF00BF004C004032
:101B90001013002004130020024A03490348FFF7F2
:101BA00034BF00BF00500040281300201C13002049
:101BB00008B590F8D000FFF71FFB20B101280348BB
:101BC00018BF002008BD0248FCE700BF00A24A047D
:101BD0000051250230B548F28005094C226822F4F4
:101BE000804222F070022A4342402260236823F49C
:101BF000E04323F040032B434B40236030BD00BF44
:101C0000005C0040284B072818BF18701A78052A76
:101C100048D8DFE802F003131E232B364FF6FB7182
:101C2000224A106C014011644FF43F4111640622B6
:101C30001A701F4B1B685A7B1A7370474FF6FB7163
:101C40001A4A106C014011644FF43F4111640422A0
:101C500002E002225A7003221A7006E05A78013A12
:101C6000D2B25A705A78002AF1D070470F490A6CE4
:101C700092B242F010020A6405221A700A225A70C7
:101C800070475A78013AD2B25A705A78002AECD189
:101C90004FF6EF720549086C02400A64044A126864
:101CA000517B11730622D7E7E4310020005C00402D
:101CB000D80600202DE9F0415F4D604A2B68546C36
:101CC0001B68A4B223405E0506D56FF4806353649D
:101CD0005B4B1B685B6898472A681368234098042D
:101CE00042BF6FF40051554B596413682340D90427
:101CF00006D56FF4C052514B00205A64FFF782FFA3
:101D00002B681A68224012050FD54C490A6C92B212
:101D100042F0080042F00C0208640A641A7B5A730D
:101D200003221A736FF4C0524A641A68224097055E
:101D300042BF6FF40071414A51641B682340DE05C5
:101D400006D56FF480723D4B07205A64FFF75AFFA7
:101D50002B681B681C40240403D5384C676C3B047B
:101D600001D4BDE8F0816FF4004317F00F066364FF
:101D700038D148F68003D4F8008018EA030FECD07D
:101D80001FFA88F32F4D304E03F440524FF40050A9
:101D900003F03003202133802A80FFF71BFFF80671
:101DA00023680ED423F4E14323F070031B041B0CBF
:101DB000236000F09DFD31882888BDE8F041FFF7E1
:101DC00009BF18F0800FEDD123F070031B051B0D28
:101DD00018F4006F236002D000F0A8FBEBE700F0DE
:101DE00005FDE8E7B40004F1804404F5B844276831
:101DF00039040DD5236823F070031B051B0D2360E8
:101E00002A6806F180439268013B52F823309847D4
:101E10003A06A2D5236806F1804623F4E14323F075
:101E200070031B041B0C23602B68013E5B6853F896
:101E30002630984791E700BFD8060020005C00409C
:101E4000EC310020E6310020E8310020800000F174
:101E5000804000F5B840036823F4804323F070030A
:101E600043F4004343F08003594001607047000091
:101E700018B90722024B1B681A820248704700BF3C
:101E8000F4310020480700200022012110B5104B3A
:101E90001B689A720F4B19640F4908680260086842
:101EA00004681C644FF4E0545A64046008680468D1
:101EB0001C644FF43F445A64046008680068186466
:101EC0004FF48010054B18600B681A7310BD00BFEB
:101ED000F4310020005C0040D806002000E100E062
:101EE00013B5104B1A68137803F07F03212B16D11A
:101EF000022808D0222801D0022405E093780A4A5B
:101F000003F0030313700024084B1B6823B102A9DC
:101F100001F8010D02209847204602B010BD0224AE
:101F2000FAE700BFF4310020801300207C1300206A
:101F300021B901288CBF0220002070470220704781
:101F4000054B1B689B78032B04D8044901EBC301A4
:101F500000F0BEBA00207047F431002030070020A6
:101F6000014900F0B5BA00BFEC060020014900F0BD
:101F7000AFBA00BFF406002037B5114C22681278C2
:101F800002F07F02212A02D0022003B030BDA0F16E
:101F90002003012B0B4B0C4D1B6888BF002523B180
:101FA00002A901F8010D02209847002DECD023680A
:101FB00000249D615C822046A8472046E5E700BFDB
:101FC000F43100207C130020711E00082DE9F04739
:101FD00000254FF0C00948F68F1648F280074FF0F1
:101FE000400A434B434C1B68DFF838819D7283F8ED
:101FF0000990256523682846334043F40073236025
:10200000236803EA08033B4383F010032360226D37
:10201000394B520043F802A08022236D5B0003F18C
:10202000804303F5C0431A60236823F4E24323F09E
:1020300070031B041B0C2360304B1B6893F82C109F
:1020400000F072F84FF440512846FFF7FFFEA368F6
:102050002946334043F4C063A360226D284B5200ED
:1020600013444FF480721A60A268022002EA080248
:102070003A4382F02002A260FFF7E8FEE36851468F
:102080003340E360226D1F4B520013444FF48872BB
:1020900003201A6000F048F84FF440510320FFF786
:1020A000D5FE636829461E406660226D164B5200BD
:1020B00043F802906368012003EA08033B4383F07E
:1020C00020036360FFF7C2FE0122104B28461B6805
:1020D0001A7300F0EDFBFF220D4B1D600D4B1D60D0
:1020E0000D4B1D600D4B1D600D4B1A70BDE8F08748
:1020F000F4310020005C004008600040EC3100201A
:10210000206000403860004010600040D806002089
:1021100084130020881300209013002094130020C3
:102120008C130020BF8FFFFF0E4B0F4A1B6D3E2903
:1021300003EBC0004FEA400002440ED94B09C80629
:1021400008BF03F1FF33C1F3090108BF9BB241F49B
:10215000004141EA8321116070474B08C80748BF1E
:102160000133F6E7005C00400C60004010B5064CFF
:1021700018B9012223681A8210BD044B1B681B6822
:10218000984720680A30F7E7F4310020F03100204A
:1021900010B5064C18B9012223681A8210BD044BF1
:1021A0001B689B68984720680C30F7E7F4310020E3
:1021B000F031002010B51E4B1C68002310B902231B
:1021C000238210BD1B4803802178024611F07F0155
:1021D00012D1617A8C0644BF02230370037848064B
:1021E0004CBF23F0010343F001031370124B1B6833
:1021F0001B6998470F48E4E70129E2D0022915D16D
:10220000217901F00F039B0003F1804303F5B843EC
:1022100009061B6805D503F03003102BE6D1012316
:10222000E3E703F44053B3F5805FF7E71846C8E7E8
:10223000F4310020EA310020F03100202DE9F8438C
:10224000234FDFF8A0803D682C8AD4B92E7A042E63
:1022500017D120490B78012B0ED11F4B1A681F4B49
:1022600092B213445B001C6030230C70A8F800305D
:102270003B681E72BDE8F88310230726A8F80030DB
:10228000F6E7AB8A9C4294BF042602269C4228BFF4
:102290001C46AB69204698478146002000F0BAFBF7
:1022A00022460146484600F052FB2146002000F03D
:1022B000CDFB2B8A4FF440521B1B2B826B8A1C4494
:1022C0003023A8F80030064B6C821A80D0E700BF9C
:1022D000F431002098130020505C004002300020B0
:1022E000E6310020E831002010B50A4B0A491B688E
:1022F00049789A7891420AD3D97841B99C8834B9FF
:102300009A72064B1B685B689847204610BD0220F6
:10231000FCE700BFF43100202C070020F031002042
:1023200038B50F4A0F4D12682B6892699978187961
:1023300090472B6804469A7A7AB170B95A7962B993
:10234000DB7853B9084B1B68DB6898472B681A7910
:10235000DA729A781A73204638BD0224FBE700BF70
:10236000EC310020F4310020F031002038B52B4B47
:102370001B68187810F07F0004D15A7A22F02002EE
:102380005A7238BD022847D15A88002AF9D15A79A1
:10239000002AF6D11979224D21F08000840004F141
:1023A000804404F5B844226849B22D780029B4BFAE
:1023B00002F0300202F4405285422DD962B39B7A7A
:1023C00053B30029236811DA03F03003102B07D12F
:1023D000C4B2204600F00BFB3021204600F0DFFAAB
:1023E000104B1B685B6998470020CAE703F4405311
:1023F000B3F5805FF4D10C4D58B90C4B93F82C1009
:1024000000F032FB23682B409BB283F440532360DF
:10241000E6E700F0D9FAF5E70220B2E7F431002050
:102420002C070020F03100208FBFFFFFFC060020AA
:1024300038B51B4B1B4D18682D78017921F08004AD
:10244000A30003F1804303F5B8431A6849B2002999
:10245000B4BF02F0300202F44052A5421DD94488B4
:10246000DCB9D2B1827AC2B11A680029B5BF22F4B0
:10247000E04222F4804222F0400222F07002B5BF16
:1024800092B292B282F0100282F480521A60064B2D
:102490001B689B699847002038BD0220FCE700BFFD
:1024A000F43100202C070020F031002008B5064B45
:1024B0001A68537A43F020035372044B1B68DB699C
:1024C0009847002008BD00BFF4310020F031002003
:1024D00010B5054B1C68628A18B98B889B1A238239
:1024E00010BD08681044FBE7F431002008B50B4B21
:1024F000002093F82C1000F0B7FA094B1B68187AEB
:10250000082806D14FF48052064B1A801022064B41
:102510001A80A0F109035842584108BDFC0600206A
:10252000F4310020E6310020E831002073B5964CEC
:10253000964E216832680B7A092B16D0944B92B2D2
:1025400013445B001B885B0003F1804303F5C04329
:102550001A780A70597822685170998822685180D7
:102560001989226891809B89D380012223681A727D
:10257000DA885D78002A64D11A7812F07F024DD192
:10258000092D03D1FFF7B0FE40BB16E0052D20D189
:1025900093F90220002A07DA08232268137202B096
:1025A000BDE87040FFF7A2BFDA78002AF4D19A881C
:1025B000002AF1D19B7A002BEED13268754B92B292
:1025C000134400225B001A603022734B1A800623EA
:1025D000E3E7032D14D19A78012A08D06F4B2846DF
:1025E0001B685B699847032828D10923D5E79A8897
:1025F000002AF3D15B7A9A06F0D5FFF757FFC3E7BD
:10260000012DEBD19A78012AE8D19A88002AE5D1E8
:102610005B7A9B06E2D5FFF7A9FEB5E7012A04D154
:102620000B2DDBD1FFF77CFEAEE7022AD6D1012DC0
:10263000F1D0032DD2D1FFF7FBFEA5E70028ABD1E7
:10264000BBE7062D12D11A7855065AD1DB78534ACA
:10265000012B126802D1D369DBB952E0022B01D100
:10266000136AF9E7032B4CD1536AF5E7002D54D1D7
:102670005988002945D15A6822F0FF02B2F5003F7F
:102680003FD11A7812F07F0216D19B88002B38D1E7
:10269000434B002522682846558293619847284677
:1026A0004FF6FF7123681A8A8A4233D0022801D07C
:1026B000002A55D108222EE0012A0AD1374A18797A
:1026C000126892699047E0B923689B7A002BDFD1AA
:1026D00017E0022A15D11A7902F00F018B001006BB
:1026E00003F180432F4803F5B8431B6800784CBFC3
:1026F00003F0300303F44053884202D912F0700F04
:10270000E4D0264B22681B6850781B699847032841
:10271000C6D1236809221A7241E7082D04D11B781B
:102720005B06EED1204BB4E70A2DEAD11A7802F00D
:102730007F02012AE5D19A7A002AE2D0598800293D
:10274000DFD15A6822F0FF02B2F5803FD9D1134A97
:1027500018791268926990470028D2D1134B98E7F4
:1027600093F90010002936DAD9880C4C01910198B0
:10277000246882421CD9019A1A8294F82C209A82E9
:10278000FFF75CFD0BE700BFF4310020505C004018
:102790000430002002300020E8310020EC3100201D
:1027A000B52100082C0700206D21000891210008A8
:1027B0008A42E2D294F82C00824203D20021094AD4
:1027C0001170DAE792FBF0F100FB1122002AD4D15C
:1027D000044A0121F4E703221A724FF44052024BDB
:1027E0001A80DCE698130020E6310020F8B52A4E66
:1027F0003468237A032B01D0052B44D1A369B3B1EC
:10280000258AA5B1A28A954228BF15462846984731
:10281000238A07465B1B2382638A00202B44638242
:1028200000F006F92A460146384600F09FF8238A50
:1028300053B100214FF44052184B08461A8000F063
:1028400005F93022164B1A80228AA18A33689142F8
:1028500009D803221A7233681B7A32681372BDE8F2
:10286000F840FFF743BE0AB10522F3E706211972CB
:102870000C4B19680C4B89B20B445B001A60302278
:10288000074B1A80E7E7072B03D1084B1B68DB686F
:1028900098470823E1E700BFF4310020E63100202B
:1028A000E8310020505C004002300020EC31002074
:1028B000002210B50C4B1C78A24204D30B4B40F005
:1028C0008000186010BD02F1805303F5B8539B00DF
:1028D000196821F4E04121F070010904090C114349
:1028E00019600132E8E700BF2C0700204C5C004073
:1028F00010B5134C23681A7A022A01D0042A09D190
:10290000FFF79CFC23681B7A22681372BDE8104015
:10291000FFF7ECBD062A10D15A78052A09D11A789A
:10292000520606D19878FFF7C3FF064B1B681B6A57
:102930009847054B1B689B6898470823E4E700BF4E
:10294000F4310020F0310020EC310020704701F11B
:102950000051013201F540515210490002B970474F
:1029600030F8023B013A21F8043BF7E701F100514E
:1029700001F54051F0B54900540823460D46861E26
:1029800033B9D30744BF11F8243000F81430F0BD38
:102990002F68013B26F8027F9BB20435F0E78000E8
:1029A00000F1804000F5B8400368CA0623F4E04314
:1029B00023F040039BB248BF83F010038A0648BF50
:1029C00083F0200303607047800000F1804000F531
:1029D000B84003685B0409D5036823F4E04323F09F
:1029E00070031B041B0C43F480430360704780009A
:1029F00000F1804000F5B84003685B0609D5036824
:102A000023F4E04323F070031B041B0C43F040034A
:102A100003607047054B1B689BB203EBC00000F1DD
:102A2000005000F54050400000887047505C004066
:102A3000044B1B689BB203EBC000034B03445B00D9
:102A400018887047505C004004300020044B1B681D
:102A50009BB203EBC000034B03445B00196070475B
:102A6000505C0040023000200D4B0E4A1B683E298E
:102A70009BB203EBC00002444FEA42020AD94B0961
:102A8000C80604BF03F1FF339BB29B0243F400432B
:102A9000136070474B08C90748BF01339B02F7E733
:102AA000505C00400630002013B504468DF8071036
:102AB00001220DF107012046FEF761FF0028F7D043
:102AC00002B010BD38B505464C1E14F9011F01B9FE
:102AD00038BDC9B22846FFF7E7FFF6E708B5134B44
:102AE00003221C6801212046FEF79AF800230121E9
:102AF0001A46B2F5007F0CD072B1B3F5007F01D158
:102B000000230A449A420CD902252068056101334A
:102B1000EFE74FF0FF31F0E7B3F5007F4FF0010131
:102B2000EED020684FF40035F0E700BF48F502080A
:102B300008B5034B0BB100F027F862B6FFF7CEFFE4
:102B4000892B000808B5044B23B100F03DF8034978
:102B5000FFF7B8FFFFF7ECFFC92B000833F60208B8
:102B6000FDF7A4BB08B501F037FB01F0F5FAFCE76F
:102B700024F07EBA24F084BA002203685B0103F1DA
:102B80008443C3F8002170474FF0FF3310B50A4C5F
:102B90000A48C4F88030C4F88430FEF70FFD0848B6
:102BA000FDF786FE0748FEF7CDFF4FF400232360B4
:102BB0004FF48013236010BD00E100E01D160008F3
:102BC000792B00084919000810B5094B094C186801
:102BD0000B220221FEF724F82068FEF783FE20680E
:102BE0004FF416520021FEF790FF206810BD00BF81
:102BF00044F50208AC020020322838B53BD8082939
:102C000039D8DFE801F00529171A1D2017232600FF
:102C100000240322184B00011D18297B1858FDF7CA
:102C2000FFFF686838B3697BCCB1BDE8384001224A
:102C3000FEF7B6BD00240422ECE700242246E9E7B3
:102C400000240922E6E700240822E3E701240B22FE
:102C5000E0E701240F22DDE700240722DAE702681B
:102C60004B1E02F1404220329B0003EBC2039B004B
:102C700003F184431C6038BDF0F1020808B501215E
:102C80001048FDF7B9FC02210F48FDF7B5FC032100
:102C90000E48FDF7B1FC04210D48FDF7ADFC052100
:102CA0000C48FDF7A9FC06210B48FDF7A5FC072100
:102CB0000A48FDF7A1FCBDE8084008210848FDF7D7
:102CC0009BBC00BF9C130020A0130020A413002075
:102CD000A8130020AC130020B0130020B413002070
:102CE000B8130020322810B50ED8084B00011C186C
:102CF0001B58B1FA81F11A680123207B49098340EE
:102D0000090103FA01F1116110BD00BFF0F10208E1
:102D10000A4A0B4B11689B6800BF00BF12688A42C9
:102D2000F6D14820C3F58C3303F5A073B3FBF0F361
:102D30004FF47A7000FB0230704700BFE031002092
:102D400010E000E038B50446FFF7E2FF05465CB14D
:102D5000FDF716FDFFF7DCFF401BB0F57A7FF6D3D9
:102D6000013C05F57A75F5D138BD28B10C234343F4
:102D7000013B18460138FDD8704740F2712106200A
:102D8000FEF7EAB9FEF7F8B9FEF728BA0449054B91
:102D9000CA6822F4E0621204120C1343CB6070473D
:102DA00000ED00E00003FA057047000038B51C4D47
:102DB0001C4C2B78BFF35B8F13F0010F09D1284611
:102DC0001FF074FB28B1184B28461B6823601FF0C6
:102DD00089FB2068FDF756FD04212068FDF7E4FC1F
:102DE000022212490F481DF015FE0023A0221049AF
:102DF0000C481DF05DFE02210A481DF081FE23688B
:102E000019684A6842F480724A6019688A6842F018
:102E100002028A601A68936843F48003936038BDA5
:102E2000BC130020C81300201800002058F6020828
:102E3000C013002024280AD0252807D10123054AE1
:102E400032F81330044AC3F30B0313807047002396
:102E5000F5E700BFC0130020C413002010B5074CD5
:102E6000032294F84C10206CFDF7DAFE236C94F8E2
:102E70004C101A6801238B40136110BDF0F1020859
:102E8000062838B58CBF00250A4B0B4C98BF1D5C3B
:102E90002046E46600F051FA2946204600F05FFA29
:102EA0002046012100F068FA2046BDE838400021A4
:102EB00000F06FBA5AF6020844140020FF210148BE
:102EC00000F07CBA441400200B4602460021014861
:102ED00000F02CBB441400200146014800F0AEBBBA
:102EE0004414002070B50D46064C0146204600F003
:102EF000A5FB29462046BDE8704001234FF400722F
:102F000000F090BB4414002003468288016892B20E
:102F1000885C99881A89C0B292B28A420FBF002297
:102F20009A88013292B29A80704738B5C3888288F5
:102F30000133934204460D4607D0C28803899BB2F1
:102F4000934214D183889BB28BB92046FFF7DCFFF4
:102F5000E38822689BB2D554E28823899BB29342CE
:102F60000FBF0023E38801339BB2E38038BD4FF0ED
:102F7000FF30EDE770B5164B1A68164B95681C6864
:102F8000DE68194616F0200F19D0A00617D5A10744
:102F90000FD05B6832060BD5230609D5AA88EB88CB
:102FA0000C4C9BB293420ED02846FFF7ADFF6060F9
:102FB00070BD59685068C9B2FFF7B7FFEAE720074C
:102FC00048BF4B68E6E7E36823F08003E360EFE780
:102FD000A80200200038014070B5164B1A68164B45
:102FE00095681C68DE68194616F0200F19D0A006F7
:102FF00017D5A1070FD05B6832060BD5230609D57C
:10300000AA88EB880C4C9BB293420ED02846FFF75F
:103010007BFF606070BD59685068C9B2FFF785FFDB
:10302000EAE7200748BF4B68E6E7E36823F0800340
:10303000E360EFE7AC0200200044004070B5164B9F
:103040001A68164B95681C68DE68194616F0200F42
:1030500019D0A00617D5A1070FD05B6832060BD593
:10306000230609D5AA88EB880C4C9BB293420ED05C
:103070002846FFF749FF606070BD59685068C9B2C3
:10308000FFF753FFEAE7200748BF4B68E6E7E3682E
:1030900023F08003E360EFE7B00200200048004027
:1030A00038B51749174D184C0A23092209682846D4
:1030B000FDF750FA2C601549154D032302220968CB
:1030C0002846FDF747FA2C601249134D1B231A229C
:1030D00009682846FDF73EFA2C601049104D2B2355
:1030E0002A2209682846FDF735FA2C600D490E4D55
:1030F00032232C2209682846FDF72CFA2C6038BDB3
:10310000A8020020CC1300206CF60208AC020020BC
:10311000E4130020B0020020FC130020A0020020D5
:1031200014140020A40200202C14002001398B006C
:103130000121026899405160704703689A689107BD
:10314000FCD59A681206FCD47047436823B1417BD2
:1031500000221846FEF724BB70470000172806D04F
:10316000182806D01628044818BF002070470348C6
:1031700070470348704700BFF4430308F84303084F
:10318000FC4303082DE9F04F814687B000798A4659
:10319000FFF7E4FF60B30578174C46782D012B1933
:1031A0008778360190F8038006EB040B18460593E8
:1031B00004EB0717FFF7C9FF5846FFF7C6FF04EBFC
:1031C00008183846FFF7C1FF4046FFF7BEFF98F8E2
:1031D0000C20059B51461B7B03923A7B484602928A
:1031E0009BF80C200192325900922A59FEF7FAF806
:1031F00007B0BDE8F08F00BFF0F1020810B50C4633
:10320000FDF7FAFF90B10228094B88BF0023002286
:103210005B089C42D0B205D20132072A4FEA530321
:10322000F7D11046034B0344187B10BD024BEEE769
:1032300000A24A04F4430308005125022DE9F0419D
:10324000034604466C302C4D00221D6001255A7344
:103250001D735A60C3E9072224339842F3D1242214
:103260004B1E02FB03430229E366DFF8AC80234ECA
:1032700039D003293CD0A94201D1214B1C60214BFC
:10328000214F1B68216823611879FFF7B7FF3B685E
:103290000225A36103236375D8F80030A06063633F
:1032A0002575616A1879FFF7A9FF3B68E062E3635F
:1032B000052384F83930042384F838303368A16C4E
:1032C000A3651879FFF79AFF104B00221B68206551
:1032D0002366012384F85C30E36E84F85D50DA7372
:1032E0002046BDE8F081D8F800306363084BC5E79D
:1032F0003368A365074BC1E700093D008C0100203E
:10330000B4140020840100205C0000206000002034
:10331000B8140020BC14002088010020C06E037B7C
:103320004268012B0CBF0023802342F440721343F8
:10333000017A427B0069FEF735B810B50446C36ECA
:103340001869FEF704F8E36E01211869FFF71AFF08
:103350002046FFF7E3FF0122E36EDA7310BDC36E70
:103360009960C36E01F038011B691A68136823F075
:103370003803194311607047C36E1973C36E1B691C
:103380001A68136823F0800309B943F080031360BF
:103390007047C36E5973C36E01F003011B691A684D
:1033A000136823F00303194311607047C36E1B6950
:1033B0001B68D960C36E1869FFF7BFBE10B5C36E36
:1033C0001C6923682046DA68D960FFF7B6FE2368D7
:1033D000D868C0B210BD0000F0B50546C36E85B018
:1033E000986917460E46FDF792FAE86E4468017D2B
:1033F000A4F500635C425C4103691A688223CDE94D
:103400000143009723460C328069FDF7D1FAE86E3C
:103410000369417D1A68C6B91023CDE901430D4BFC
:10342000009323460C328069FDF7C2FAEB6E00224E
:10343000597D9869FDF77BFA0322EB6E197D986937
:1034400005B0BDE8F040FDF772BA90230096CDE9D3
:103450000143E6E788F6020870B504460D4611B947
:103460000025284670BDC36E1A6912689168CE07A0
:1034700048BFD2680422DA73C36E2A46197D986960
:10348000FDF761FAE36E2A46597D9869FDF75BFA0C
:10349000E36E197D9869FDF773FAE36E597D9869BB
:1034A000FDF76EFAE36E1869FDF78EFFE36E18699B
:1034B000FDF77EFFE26ED369002BD1D193691A49E3
:1034C0001E68537D0D68013B9B00DBB23068D8401D
:1034D000800727D40868401B6428F7D902251069A3
:1034E000FFF72BFEE36E1869FDF768FFE36E1869BE
:1034F000FDF770FFE36E597D9869FDF74DFAE36EB5
:10350000197D9869FDF748FAE36E197D9869FFF710
:103510000DFEE36E597D9869FFF708FE0122E36E08
:10352000DA739EE70025DAE7E031002038B504467B
:103530001D46FFF751FF29462046BDE83840FFF7FA
:103540008BBF7FB5054614460E46C36EE4019869ED
:10355000FDF7DDF9E86E44F012044368417DA3F500
:1035600000625342534102691268CDE9013400966A
:103570000C328069FDF71CFA0022EB6E597D9869C8
:1035800004B0BDE87040FDF7D2B9000070B5044644
:103590000D4611B90025284670BDC36E597D986946
:1035A000FFF7C4FDE36E2A46597D9869FDF7CBF914
:1035B0000322E36EDA73E36E597D9869FDF7E0F953
:1035C000E36E1869FDF7F4FEE26E136A002BE1D199
:1035D000936913491E68537D0D68013B9B00DBB264
:1035E0003068D840800719D40868401B6428F7D990
:1035F00002251069FFF7A1FDE36E1869FDF7DEFEF5
:10360000E36E597D9869FDF7C7F9E36E597D9869B6
:10361000FFF78CFD0122E36EDA73BCE70025E8E7D3
:10362000E031002038B5044615461A46FFF789FFF9
:1036300029462046BDE83840FFF7A8BF08B5FFF788
:10364000B5FE012008BD000001210148FFF7F6BDCD
:1036500044140020012342798B4010B5DB439AB11A
:10366000012A41F65F6218BF0122046813402361FA
:10367000036803F140430C3301EBC30101238900CC
:1036800001F184410B6010BD41F6FF62EDE70022BD
:1036900003685B0103F184431A60704701220368E9
:1036A0005B0103F18443C3F88022704770B5224D5B
:1036B000224C2B78BFF35B8F13F0010F0AD1284601
:1036C0001EF0F4FE30B1012000F0BCFA2060284664
:1036D0001EF008FF23681B681E69B20714D5184D39
:1036E0000322297B2868FDF79BFA2B68297B1A683F
:1036F0004FF480338B401361002223681B685B0109
:1037000003F18443C3F80422730713D50C4D03223D
:10371000297B2868FDF784FA2B68297B1A68012326
:103720008B401361002223681B685B0103F1844313
:10373000C3F8082270BD00BFC4140020C8140020C4
:10374000F0F102084FF0FF3310B5084A43601378D8
:103750000446022B9ABF591C1170FF2301210370EC
:10376000084600F0D1F9204610BD00BFC01400206B
:1037700038B542680546531C28D003780BB9006958
:1037800038BD846844F62060114B03EB02135A687D
:103790005B7B126803F180433432013B52F8231003
:1037A0004FF6AF7289B20023A1FB00011EF074FA3C
:1037B000E968A0F50870091B4FF4E862002380FB5C
:1037C00001011EF069FA204400B2D9E70020D7E7D2
:1037D000F0F10208F8B501200D4600F033FA044676
:1037E00000283ED01F4E2D017719397B70590322D6
:1037F000FDF716FA735901251A683B7B204605FA36
:1038000003F31B041361FFF742FF02222946FDF771
:10381000C7FF226829469369204623F0FF0393617E
:103820002268936923F47F439361152223689A6287
:103830004FF6AF732268D3622268536322689363A2
:10384000094AFDF70FFF084A02212046FDF70AFF4B
:103850002046FFF723FF284623685B0103F18443DA
:103860001D60F8BDF0F10208AD36000870B50546E0
:1038700001200E4600F0E6F903685E63FFF70EFFD5
:103880003EB10121FFF7E6FEBDE870400221FFF7DF
:10389000E1BE03680F4C5B0103F18443C3F884610C
:1038A000036803225B0103F18443C3F888616B68FA
:1038B0001B01E118097BE058FDF7B2F96B681B01A9
:1038C000E118E358097B1A684FF480338B40136189
:1038D00070BD00BFF0F10208037813B91146FFF77D
:1038E000C5BF074B03EB0113596839B15B7B08680F
:1038F00003F180433430013B40F82320704700BF80
:10390000F0F10208F8B505780446022D0E4601D9FB
:103910000020F8BD3229FBDCC0E902234FF0FF3361
:10392000036125B9FFF756FF08B16660F1E7114B57
:1039300003EB06135D68002DEAD0F7B20721384685
:10394000FFF75AF9002239462046FFF7C5FF2846FF
:10395000FFF79DFE15222B689A624FF6AF722B6817
:10396000DA62FFF79BFE01202B685B0103F18443C1
:103970001860DAE7F0F1020808B541684A1C08D07F
:103980004FF0FF32C9B202610022FFF7A5FF01200C
:1039900008BD0020FCE738B5456804466B1C28D0FC
:1039A000D0E902328B4222DC9142A8BF11464FF48B
:1039B000E8602161D21AC91A81FB0001D3171EF0F9
:1039C0006BF94FF6AF7100F5087080B2002344F632
:1039D0002062A0FB01011EF05FF9E9B282B220462D
:1039E000FFF77AFFBDE83840322000F0CBBD194622
:1039F000DDE738BD084B186803F178420749A2F5A6
:103A00007C328850064A04339342F4D10022054B9D
:103A100001201A70704700BF00F00308CC1400208A
:103A200000F80308CC1C002070B5164D2C783CB370
:103A30001DF000F914481DF0B5F8052805D01DF05B
:103A400005F900232B70204670BD10481DF0AAF820
:103A50000528F4D10C4E0E4A06F17843A3F57C33C9
:103A6000D15A30461DF0C0F8052804D000241DF0BE
:103A7000EDF82C70E7E7054B02369E42EBD1DEE70E
:103A80000124E0E7CC1C002000F0030800F8030844
:103A9000CC140020F8B505460024944206D0094E07
:103AA0000F5D2868264437540134F6E70120064AA2
:103AB0001070A2B2184612F0DFFD2B6800201C44E3
:103AC0002C60F8BDCC140020CC1C002070B515462D
:103AD0009DF8102004465AB902680A491144AAB256
:103AE000184612F0C9FD226800202A44226070BDE9
:103AF0000022AA42F3D0034E20681644305C88545A
:103B00000132F6E7CC1400200138072813D8DFE88B
:103B100000F01004080A0C12120E1C20C9B2FDF7A6
:103B200033BB1D20FAE71E20F8E73220F6E72E20EF
:103B3000F4E71B20F2E77047022870B502460D46F5
:103B400039D0052836D100262C4C022223680121C9
:103B50005B0103F184431E602046FDF721FE2849E6
:103B60004FF6FF70B1FBF5F11122814228BF0146EB
:103B700023685E629A62D8629A69204622F0FF0248
:103B80009A6159635B0103F184430121DE611D4A9F
:103B9000FDF768FD02213220FDF7F6FA01222368C5
:103BA0005B0103F18443C3F8802223685B0103F1C6
:103BB00084431A6070BD0026134C012123682046FF
:103BC0005B0103F184431E60FDF7EAFD40F2E7323A
:103BD00023680E495E62B1FBF5F19A624FF6FF72FF
:103BE000914228BF1146DA6220465963084A0121F2
:103BF000FDF738FD03211C20CEE700BF3C0200206A
:103C000000093D0095B70108D001002040190100CE
:103C1000B1C3010802280CD005280CD1074B1B6842
:103C20005B0103F18443D3F88401003018BF012005
:103C30007047034BF3E70020704700BF3C020020B1
:103C4000D0010020013807289ABF024B53F820000A
:103C5000002070478CF602080A4A0B4B11689B68DB
:103C600000BF00BF12688A42F6D14820C3F58C33EA
:103C700003F5A073B3FBF0F34FF47A7000FB02304E
:103C8000704700BFE031002010E000E0044B1B68EB
:103C9000B0FBF3F0012838BF01200138FDD1704797
:103CA00054070020044B054A19681268891A1A68DB
:103CB000521A8242FBD37047041000E054070020E0
:103CC0002DE9F0411B4B1C4D1A681C4EC2B9012353
:103CD0002B6072B6FFF7C0FF04464FF47A70FFF70F
:103CE000D5FFFFF7B9FF62B6031B482058434FF4D6
:103CF0007A73B0FBF3F0124B28603360BDE8F081BB
:103D000000201049104F0A6842F080720A60386043
:103D10001A6842F001021A6028603C68D7F80080F7
:103D2000FFF7C0FF3B681C44A4EB48042C60074B22
:103D3000E3E700BF001000E0540700205007002018
:103D40008D3C0008FCED00E0041000E0A53C0008FC
:103D500001207047074B93F90000012808D0064B5B
:103D60001B78C3F3800018B1C3F3C01080F00100CA
:103D7000704700BF542300206C300020034B1B7899
:103D80000BB9FFF7E7BF0020704700BFA81D002058
:103D9000074B084A1B781278DBB2D2B2934238BF85
:103DA00010339B1ADBB20BB9FFF7E8BF0120704755
:103DB00022290020232900200B4B1B788BB90B4BA9
:103DC00093F90030022B0CD0094B1B78C3F3001081
:103DD00040B1084AD07828B1C3F3800080F00100D8
:103DE00070470120704700BFA81D00205423002009
:103DF0006C3000204C30002013F0BEB838B50546BA
:103E000040F2E934013C05D00D4B4AF6C0001B6876
:103E10009847F7E772B640F2E934013C05D0084B09
:103E200044F250601B689847F7E718F01BF925B17A
:103E300017F06AF8FEF7A6FFFCE717F055F8F9E768
:103E40005007002010B50F4C18F00CF913F03CF897
:103E50002378012B15D000F035FB0B4800F022FB36
:103E60000A4B0B4A1B780B48013B032B88BF1046BB
:103E700000210AF0D9F84FF4AF7000F083FB012362
:103E8000237010BDD71C002022F702086A220020F0
:103E90003EF802082DF8020803681B68184730B581
:103EA000054689B001B3002308A85C1C0344B1FB9C
:103EB000F2F002FB101164B203F8201C2346014605
:103EC0000028F1D1013C64B2631C10D008AB23443C
:103ED00013F8201C28460A2934BF302337231944FD
:103EE000C9B2FFF7D9FFEDE73021FFF7D5FF09B0E1
:103EF00030BD0A2A70B506460C46154605D1002984
:103F000003DA4C422D21FFF7C7FF2A4621463046EF
:103F1000FFF7C5FF70BD000001481AF09BBC00BF51
:103F2000D61C0020044608B50D46164618F09AF82F
:103F3000BCB100F0C1FA204600F0B4FA0A210D48E5
:103F4000FCF7F8FA0C492046002D18BF29460AF064
:103F500099F900F0B7FA094800F0A4FA3046FFF7E3
:103F60004DFF074B074A1C78631E074C032B88BF85
:103F70001446E7E7CC13002046F80208F8F60208DA
:103F80006A22002037F8020824F8020870B50646B5
:103F9000334D07F015F82C6816B9324B187810B16C
:103FA0000120314B1C60314B1B682BB12E4A12682B
:103FB0001344E31A002B23DA2D4B19782D4BC9B289
:103FC0001A78D2B2914237D12B4B1B6863B1914220
:103FD0002A4A07D130B92968234D2D682B44CB1AC2
:103FE000002B2CDA00231370254D01F03DFB2B68CC
:103FF000E31A002B03DB643414F0A8FA2C6070BDC4
:1040000000F060FA1F4800F04DFA1F4B1F481C6873
:1040100000F048FA013C14F9015F25B1E9B21C48EF
:10402000FFF73AFFF7E70A211948FCF783FA2A4617
:1040300029462846FFF776FF0B4B1C60C4E7137830
:10404000002BD1D10125157016F0E6FE284616F09A
:10405000E3FE022016F0E0FE16F046FFC4E700BFC4
:10406000E0310020A81D0020C01D0020C81D002038
:1040700022290020232900205C070020D41C0020D6
:10408000D01C0020BAF60208D41D0020CDF602088C
:10409000CC13002008B5FFF779FF18F00BFD114B8A
:1040A0001B78F3B1FEF780FE1BF000F804F010FF60
:1040B00012F078FA09F002FE0B4B1B788BB90B4A11
:1040C000137973B10A4908681168411A002908DB9D
:1040D0004FF47A7101FB03031360BDE8084018F048
:1040E00085BD08BDD71C0020C41D0020DC2B00208E
:1040F000E031002003222DE9F041134D134C95F9D6
:1041000000702A70012288462270064610B1104BBA
:104110001B681E4423784BB126B10D4B1B689B1BBB
:10412000002B03DA4046FFF7B5FFF3E700232370C7
:10413000084B1B785B0703D5322000F023FAF7E722
:104140002F70BDE8F08100BFBC1D0020D81C0020EE
:10415000E03100206922002010B50020FFF79AFF0F
:10416000154B1B78DB0917D00024144B1C701AF078
:10417000AFFC134B9C705C701C7013F027F912F0AD
:10418000A3FE17F06FFF2146204617F099FE0D4B56
:104190000D4A1C700D4B1A600D4C2378042B05D171
:1041A0000C4806F081FC08B10323237006F05EFD85
:1041B000BDE8104012F0ECBF6C300020902E0020C3
:1041C000021E00205807002018F70208382000209F
:1041D000D71C00201CF70208F7B55D4D00224FF4F4
:1041E000E1312846FCF7C6F92B695A4C93F9D10006
:1041F0000121FCF7C9FF2268284602F57A72FFF711
:10420000A7FD18B923689B1A002BFBDB524800F06E
:1042100049F90A20FEF796FD504A012613680DF170
:10422000070523F0E06343F000731360FEF7AEFD73
:1042300017F08EFB4A4800F035F94A4800F032F991
:1042400000F03AF9484800F02DF900F035F94748F8
:1042500000F028F900F030F90020FCF7DBF82D1A07
:10426000434800F01FF929460A223948FFF741FE6A
:104270004048414D00F016F90A224FF4A861344835
:10428000FFF70DFE0A213248FCF754F9FFF718FD3D
:1042900095F89C12D5F890020322FCF7C1FCD5F8E2
:1042A00090321A6895F89C3206FA03F31B041361E6
:1042B000D5F890321A6895F89C32304D06FA03F31F
:1042C0001B04136100222E4B5A6009F02FFF2B783C
:1042D0001BB916F05DFD00B12E702A4D2A4E07F075
:1042E00066FC296830681DF0ADF96968286070685F
:1042F0001DF0A8F9B1686860A8681DF0A3F92768E7
:10430000A86013F01BF8214818F0FCF812F004FE26
:1043100012F092FE16F096FF15F008FC15F034FB33
:10432000002012F0ABFE012000F0B4FCFEF725FDEA
:104330002068C01B07F042FC01231A4619461846A4
:1043400001F0D2F80322124B1A7003B0F0BD00BF87
:10435000CC130020E03100209C360308040001400B
:1043600099F70208A2F70208B2F70208E6F7020876
:10437000FEF702080DF80208F0F10208D51C002033
:10438000202300207023002090230020552C0020A3
:10439000D71C0020000000002DE9F84317461E46F8
:1043A000054600220023384631469DF820401DF086
:1043B00083F828B12D212846FFF76EFD06F100464F
:1043C0004FF0000800202A495FFA88F39C4207D981
:1043D00025A3D3E900231CF0FDFD08F10108F3E754
:1043E00002460B46384631461CF03EFC8946804664
:1043F0001DF0B2F80A22064601462846FFF74FFD97
:1044000074B330461CF06CFD02460B4640464946EC
:104410001CF028FC06460F4628462E21FFF73CFDDF
:10442000013CE4B2FF2C1BD0124B0022304639462F
:104430001CF0D0FD894680461DF08EF806460A2203
:1044400001462846FFF72BFD30461CF049FD024689
:104450000B46404649461CF005FC06460F46DFE782
:10446000BDE8F883AFF30080000000A09999B93F40
:104470000000E03F0000244007B51CF053FD02237C
:104480000246009303480B46FFF786FF03B05DF832
:1044900004FB00BFCC130020C1B20148FCF74AB8AE
:1044A000CC13002010B5044614F9010B10B1FFF72E
:1044B000F3FFF9E710BD00000148FFF7F3BF00BFAD
:1044C00068F802080148FFF7EDBF00BF6EF8020868
:1044D000034A044B002814BF10461846FFF7E2BFFA
:1044E00036030308B7010308034A044B002814BF2E
:1044F00010461846FFF7D6BF75F802087AF802088A
:1045000010B51DF053F91DF0A7FBC4B2013CE4B295
:10451000FF2C03D02020FFF7BFFFF7E710BD08B541
:10452000FFF7D6FF0A20FFF7B7FF08BDF8B5069CD6
:1045300007460E46154613B11846FFF7B3FF0E485F
:10454000FFF7B0FF3846FFF797FF0C48FFF7AAFFC9
:104550003046FFF791FF0A48FFF7A4FF2846FFF710
:104560008BFF24B12046BDE8F840FFF79BBF0A202F
:10457000FFF792FFF8BD00BF54F802085BF802088D
:1045800062F8020810B50446322C06D93220323CBB
:10459000FEF7D8FB18F08EFAF6E72046FEF7D2FBBE
:1045A000BDE8104018F086BA38B5094C25882DB200
:1045B000002D0CD0CCBF0121002117F033F9238846
:1045C000002DCCBF03F1FF3301331BB2238038BD74
:1045D000DE1C0020012303FA00F010B5C0B20C4627
:1045E00013F0E4F968B9074AA1B213880B441380A9
:1045F000054A13880B441BB21380044B1A881144DC
:10460000198010BDDC1C0020DE1C0020DA1C0020FC
:1046100010B50446074B084603EB840359691DF0A7
:1046200019F91DF0F3FA01B22046BDE81040FFF77A
:10463000D1BF00BF6429002000230C4A53601360DF
:104640000B4A536013600B4B03F164010A4A1433A5
:1046500043F8142C43F8102C43F80C2C43F8082C86
:1046600043F8042C9942F1D1704700BFE81C0020A8
:10467000F81C0020041D00200000C07F0A4638B549
:10468000134C03C884E80300124B256892E803002A
:1046900083E80300002128461DF070FAA0B92946DE
:1046A0004FF07E501DF08AF90546646800212046CF
:1046B0001DF064FA50B921464FF07E501DF07EF98E
:1046C000054B1D60586038BD0025EEE70020F7E778
:1046D000F81C0020E81C0020F01C002010B5044647
:1046E0000648FFF7DFFE0521054B0322002C18BF0B
:1046F0002346BDE81040084600F0ACB980F8020837
:10470000041D0020044B054A1A605A609D22044B88
:104710005A701A70704700BFE01C0020F0FF79C487
:10472000001D00202DE9F74F704E054631680068E6
:104730001CF086FF7168044668681CF081FF6C4EAF
:104740008146214630681DF019FA6A4DDFF8CC81A8
:1047500070BB694B3460196820461DF07BF88246B7
:104760001EF0E6FF002104461DF012FA0027002883
:1047700036D14FF0814120461DF028FA08B14FF0A4
:104780008144214650461CF05BFF002182461DF00B
:10479000FFF938BBC5F800A020461DF037FA40B23B
:1047A00088F8000001300428A8BF0420534B18707B
:1047B000534F4946706897F900B098F900401DF0D2
:1047C000DDF988B1A34540D14E4B286819681DF02A
:1047D00041F84D4B19681CF035FF03B0BDE8F08F70
:1047E0003C46CEE72F60D7E7434BC6F804905968A4
:1047F00048461DF02FF881461EF09AFF00218246A0
:104800001DF0C6F9002600286CD14FF081415046BA
:104810001DF0DCF908B14FF0814A514648461CF0C2
:104820000FFF002181461DF0B3F900285CD1C5F8C7
:10483000049050461DF0EAF940B288F801000130BA
:104840000428A8BF04202D4B5870A34598F90130C7
:104850002E4EDFF8CC9003D197F901209A4226D052
:10486000B8F80020DFF894B03A8004EB8404284FB5
:10487000E2189BF9018057F822104444316057F840
:10488000240001931CF0DCFE9BF90020019B02EB4D
:104890008202134457F823101E4B9044C9F80000BD
:1048A000196057F828001CF0CBFE1B4B18606F688E
:1048B000D9F8001038461CF0CDFF31681CF0C2FE5C
:1048C0000446114B1860144B384619681CF0C2FF9F
:1048D000104B19681CF0B6FE21461CF0B1FE094BC6
:1048E000186071E7B24698E76E60A2E7E81C002006
:1048F000E01C0020841D0020F01C0020801D0020F2
:10490000001D0020681D00206C1D0020781D002067
:10491000041D00207C1D0020741D00208C1D002023
:10492000701D002010B5064B002118684FF00104DF
:104930001DF024F908B14FF0000404F0010010BD8F
:10494000F81C002038B5054628B10D4B0021186829
:104950001DF014F998B90B4C2378AB420FD013F02B
:104960004DFF094813F058FE2378074883F00103F0
:10497000237013F09DFEBDE8384012F0DFBC38BD57
:10498000F81C002020290020702300202DE9F04190
:10499000244D04460F46014628681DF0EFF8002814
:1049A0003DD1214B1E78FFF7CDFF002120461DF0A1
:1049B0000DF900B900242C601C4920461DF0FCF8BC
:1049C00020B11B4920461DF0EDF830BB21464FF0C9
:1049D0007E501CF0F3FF174B174A1860174B1A60F4
:1049E000EEB1174C0120D4F800806668A568FFF787
:1049F000A9FFA7B1414620681DF0C0F848B1314673
:104A000060681DF0BBF820B1A16828461DF0B6F81B
:104A100028B9BDE8F04113F0BFB90020DBE7BDE8DD
:104A2000F08100BF0C29002020290020BD3786B569
:104A3000BD37863528290020F0FF79C4B423002033
:104A40007023002008B50020FFF77CFFBDE8084078
:104A5000FFF7F2BD2DE9F04F04468A4617469B4604
:104A6000002585B0A5420FD0EBB20A2B34BF03203E
:104A700002203844C0B2FFF743FD29460A222B48E2
:104A8000FFF70DFA0135EDE700240A20FFF704FDDA
:104A90004FEA8A030393544542D0E3B2092B02D86C
:104AA0002020FFF7F9FC0A2221462048FFF7F7F9FA
:104AB0004FF000090BEB8408A9452CD02020FFF70C
:104AC000EBFCD8F80060314630461DF089F8A8B9F3
:104AD000002130461DF070F810B12B20FFF7DCFCF0
:104AE00030461CF01FFA009702460B460F48FFF7AE
:104AF00053FC039B09F101099844DDE70026F3B25A
:104B0000BA1C9A42F5DB002B14BF3D202020FFF792
:104B1000C3FC0136F3E70A20FFF7BEFC0134BAE715
:104B20000A20FFF7B9FC05B0BDE8F08FCC130020D8
:104B3000054BD3F8F02093F8FC3012689068D84009
:104B400000F00100704700BFF0F1020838B50446DC
:104B50000B480D46FEF70CFEC0B2A0420BD0084831
:104B60002146FEF718FF2868B0F5FA7F38BF4FF4EA
:104B7000FA70FFF707FDBDE83840FFF7D9BF00BF67
:104B8000D42900204FF4FA7307B502A941F8043D77
:104B9000A020FFF7DBFF03B05DF804FB40F2EE233B
:104BA00007B502A941F8043D5A20FFF7CFFF03B033
:104BB0005DF804FB40F2EE2307B502A941F8043D7D
:104BC0000A20FFF7C3FF03B05DF804FB08B5FFF749
:104BD000D9FFFFF7E3FFFFF7EDFFFFF7DFFF08BDAA
:104BE00037B540F2EE2502AC44F8045D21460A20B8
:104BF000FFF7ACFF18B90024204603B030BDFFF723
:104C0000E5FF21460A200195FFF7A0FF0446002892
:104C1000F1D014F0FFFDEFE737B540F2EE2502AC1E
:104C200044F8045D21465A20FFF790FF18B900248C
:104C3000204603B030BDFFF7A5FF21465A2001955D
:104C4000FFF784FF04460028F1D014F0E3FDEFE7FE
:104C500037B50546FFF7AEFF962001A9019005B1D3
:104C60008C209624FFF772FF01A982200194FFF7A0
:104C70006DFF019401A945B18C20FFF767FFFFF795
:104C80008DFF034B1D7003B030BD2046F5E700BF1C
:104C90008E1D002010B50446FFF774FFFFF77EFF5E
:104CA000044B1B782BB124B1BDE810400020FFF766
:104CB000CFBF10BD8E1D002038B51B4B93F90030BF
:104CC000012B2DD0194D19B10023194A2B601370F7
:104CD000184B1A682B68D31A002B21DB144C0028C0
:104CE00094F900301DDB011D994219DB9842CCBFBD
:104CF0004FF47A704FF4FA7003F001031902C91AE5
:104D000003EBC10103EBC1018900104401F55C71A3
:104D1000286089B2322011F085FC2378013323709A
:104D200038BD4FF47A70E7E759070020A41D002032
:104D3000A01D0020E031002038B50B4B0B4DB3F91E
:104D400008407CB158681CF061FF023000B2043C9E
:104D5000A04207DA064B28801B6803F5EA33C0330C
:104D60006B6038BD0023FBE7A42B0020D42B002070
:104D7000E0310020084B1B7863B9084A12783AB931
:104D8000074BB3F90030013B9842ACBF002301232D
:104D9000184670470023FBE7042C0020072C002056
:104DA000DA070020F8B52B4D06462B780F461B0777
:104DB00010D4294CB4F90800FFF7DCFF50B1274BA1
:104DC000B3F90030B3F5827FA8BF4FF4827323811B
:104DD000FFF7B2FF002239460A200DF0E1FD2EB1A7
:104DE000BDE8F8400121002017F008BF1C4B1D4C06
:104DF0001B7883F001032370237883B1164E4FF0A4
:104E00007C5170681CF01EFC1CF000FFB6F90830E5
:104E100000B2C01A0028B8BF4042012807DC0023B6
:104E20002878237010F0080405D0012010E000203D
:104E3000FFF730F9E0E7084BB3F90800FFF79AFFF6
:104E40000028F2D0FFF738FB0748FFF72BFB20467E
:104E5000F8BD00BFD91C0020A42B0020DA070020D9
:104E6000042C002058070020F0F802082DE9F74F25
:104E70009DF93850814688460020294617469A46B3
:104E80009DF830409DF834B0FFF78CFF064648B9D6
:104E900024B1024629460B200DF082FD304603B0B6
:104EA000BDE8F08FBBF1000F28D024B100222946C5
:104EB00003200DF075FDFFF7FFFA3648FFF7F2FA11
:104EC00001215046FFF7F8FE0321334B012093F9EF
:104ED0000020197031499B460B46087019780193E0
:104EE00051B1002150460092FFF7E6FE0120FFF786
:104EF000D1F8DDE90023F1E78BF8002024B100228E
:104F0000294604200DF04CFD002148461CF036FED9
:104F100018B92349484612F075FA002140461CF0A2
:104F20002DFE50B91F4D204BD5F838901C494046F6
:104F3000AB6312F067FAC5F83890002138461CF0D0
:104F400045FE48B124B10022062011460DF028FD8F
:104F50001649384612F056FADFF85480A4B10323FC
:104F600000220D4D114695F900902B700B4B072038
:104F70001A700DF015FD98F900301BB90120FFF7EC
:104F800089F8F8E785F8009098F90030012BD4D023
:104F900084E700BF99F80208BC1D0020D81C00203F
:104FA0000000C040642900200000C84100004040CB
:104FB000B41D00202DE9F04180460E460020114628
:104FC0001546FFF7EFFE044640B926B102460146FA
:104FD0000B200DF0E5FC2046BDE8F08126B1002253
:104FE000294605200DF0DCFC0D490E4E0E4812F04E
:104FF00009FA0E4D41F28830FFF7C4FA31460C48E9
:1050000012F000FAAF6B0B494046AE6312F0FAF9AA
:10501000AF6315F053FF6420FFF7B4FADBE700BF7E
:10502000000070420000C841000050C16429002007
:105030000000A841000020412DE9F04117462A4A0E
:105040001D46137806468846002B45D10123274983
:1050500013700B78580706D5D80901BF60F3820397
:105060000B700223137011F043FF214C214B0FCB27
:1050700084E80F00072012F099FC044613F0BEFBF1
:10508000002130461CF07AFD78B91B4B4FF07C5163
:1050900058681CF0D7FA1CF0B9FD00B2FFF76AFEA1
:1050A00018B91649304612F0ADF9BCB94146204650
:1050B00011F018FB002128461CF060FD20B90222E7
:1050C00039462846FFF776FF15F0F8FE6420FFF713
:1050D00059FA0120BDE8F0810020FBE700210848D3
:1050E00008F0A2FFE6E700BFA81D00206C300020FA
:1050F000901D002070230020A42B0020000070428F
:105100001AF90208002210B504461146904214BF55
:10511000032002200DF044FCFFF7CEF90448054BB4
:10512000002C08BF1846BDE81040FFF7BBB900BF10
:1051300099F80208BBF802082DE9F84F8946834622
:10514000FFF7E0FF01214846FFF7B6FD2B4A2C4C44
:1051500013682C4E03F52F43C833236000232371BB
:10516000032396F900A0337001239046264F3B702D
:105170003B78002B3ED000214846FFF79DFD237968
:10518000A3B300220025114609200DF009FCFFF70A
:1051900093F91E48FFF786F901210020FEF7AAFFC8
:1051A0001B4B1C4A1B781C48013B032B88BF104635
:1051B000002108F039FF25602571FFF7BDFD294664
:1051C0002846FFF7EFFD5846FFF79CFFD8F8003060
:1051D000294603F52F43C83310482360257108F092
:1051E00023FF012148463970FFF766FD0120FEF7D5
:1051F00051FFBDE786F800A0BDE8F88FE031002040
:10520000942B0020BC1D0020D81C0020D3F80208DD
:105210006A22002030F9020801F902080EF902089A
:105220002DE9F04F4B4C9A46237887B007468846C5
:105230009146BDF94050002B00F089800026464B76
:1052400093F804B01E601E71FFF776FD434AB2F971
:105250000830AB42334616460ADAB5F5827F2A4655
:10526000A8BF4FF4827232810593FFF765FD059B5D
:10527000CDE901B301234A460093414653463846DF
:10528000FFF7F4FD002D0BDDB5F5827FA8BF4FF4CD
:1052900082753581FFF750FD0021084617F0AEFCFE
:1052A0000022082011460DF07BFB00210120FFF7B2
:1052B00079FD2B494FF0404012F0A4F8072012F07E
:1052C00075FB284E284F294D78B93068FB68716806
:1052D000BA6828602648EB606960AA6012F040FB5B
:1052E000B3682448AB6012F03BFB1D494FF080408F
:1052F00012F088F8D6F80C80002140461CF048FCDB
:1053000018B11749404612F07DF8F068F860E8607F
:1053100014F028F900220B2011460DF041FB2378F0
:10532000013B2370144B93F90030022B01D111F093
:1053300023FE23781BB1013B237019F07FFB002073
:1053400008F0A4FE07B0BDE8F04F09F01DBA07B0A1
:10535000BDE8F08FA81D0020942B0020A42B002076
:1053600000007042901D0020702300208023002048
:105370000000C8420000A0405423002010B50B6874
:1053800004461B69084698472379C0F3400210F091
:105390003C0F60F3000362F3410314BF01220022BB
:1053A00062F3820320602371204610BD3C23F7B5D1
:1053B00006680C46B6FBF3F74FF46161B7FBF3F0F8
:1053C000B6FBF1F103FB10708DB29AB11822B5FB58
:1053D000F2F302FB1353124A00909BB2B6FBF2F2B7
:1053E0001049204622F0A6FC204622F0B7FEC0B2AB
:1053F00003B0F0BD45B9024603FB17630A492046D6
:1054000022F098FC0520F3E7632D8AB2034601D809
:105410000649F4E70649204622F08CFC0620E7E71F
:105420008051010025FA020836FA02082AFA020819
:1054300042FA020810B504461148FFF733F810226B
:1054400021681048FEF72BFD0D210E48FEF724FDC4
:105450000A210C48FEF720FD23799A0702D50A4855
:10546000FFF720F823795B0702D50848FFF71AF801
:10547000BDE81040002206481146FEF753BD00BFAC
:105480007DF90208CC13002098F90208A9F9020856
:10549000BDF9020810B5441E14F9011F21B1C9B2AB
:1054A0000248FEF7F9FCF7E710BD00BFCC1300205F
:1054B00008B501460A220248FEF7F1FC08BD00BF0C
:1054C000CC13002008B5FEF7EDFF0A20FEF7E4FF3D
:1054D00008BD10B50C46FEF7E5FF2046FFF7E8FFD4
:1054E0000A20FEF7D9FF10BDF8B50D4617461E4637
:1054F000002800F090804F48FEF7D4FF5820FEF7B8
:10550000CBFF4D48FEF7CEFF4C481AF012FD044683
:1055100000287ED04A48FEF7C5FF012C77D04948C5
:10552000494B022C18BF1846FFF7CCFF003418BFB8
:105530000124F5B13F48FEF7B5FF5920FEF7ACFF57
:105540003D48FEF7AFFF41481AF0F3FC054600283E
:1055500065D03B48FEF7A6FF012D5ED039483A4B97
:10556000022D18BF1846002D18BF0134FFF7AAFFFF
:10557000E4B2F7B12F48FEF795FF5A20FEF78CFFF3
:105580002D48FEF78FFF32481AF0D3FC054600285D
:1055900049D02B48FEF786FF012D42D029482A4BDF
:1055A000022D18BF1846002D18BF0134FFF78AFFDF
:1055B000E4B2F6B11F48FEF775FF4520FEF76CFF19
:1055C0001D48FEF76FFF23481AF0B3FC054600287C
:1055D0002DD01B48FEF766FF012D26D019481A4B27
:1055E000022D18BF1846002D18BF0134FFF76AFFBF
:1055F000E4B2F4B1184B19481B78194A013B032B4C
:1056000088BF1046BDE8F840002108F00DBD1548E0
:105610008AE70D4888E704468BE71248A3E70A4863
:10562000A1E71048BFE70848BDE70E48DBE706489A
:10563000D9E7F8BDD6F90208DFF90208B42A00203C
:10564000EFF90208D2F90208CAF90208FC2A002080
:10565000442B00206C2A00206A220020FBF902085B
:1056600010FA0208CDF9020830B5C24BC2491B68D6
:105670000A6889B09A1A002AC0F2FA81BF4C03F571
:10568000FA730B6002A82146FFF778FE029B013BEC
:10569000033375D89DF80C2094F84530910702D457
:1056A000550740F1E781013384F8453094F84530DF
:1056B000092B08D90A20FEF7EFFE5820FEF7ECFE72
:1056C00002A8FFF7B7FE9DF80C30D80725D594F84F
:1056D000443013BB11F032FCA94A04A9904294BF94
:1056E00000220122019001A8FFF760FE0A20FEF7C8
:1056F000D3FE04A8FFF7CEFEA248FEF7D3FE582043
:10570000FEF7CAFEB4F842509F48FEF7CBFE28468B
:10571000FFF7CEFE9D48FEF7C5FE9DF80C0010F089
:10572000010007D094F84430042B40F2A88193483C
:105730001AF05DFB9DF80C3094F8442013F001033F
:1057400000F09F810123013284F8442084F8463020
:10575000B0B18A481AF04BFB90B1B4F84250323DD8
:10576000ADB2322D0CD929468448A4F842501AF023
:1057700085FB5820FEF790FE29468548FFF7A9FED5
:10578000844C02A82146FFF7F9FD029B013B03333D
:1057900075D89DF80C2094F84530910702D4550730
:1057A00040F17581013384F8453094F84530092B78
:1057B00008D90A20FEF770FE5920FEF76DFE02A8F8
:1057C000FFF738FE9DF80C30D80725D594F8443003
:1057D00013BB11F0B3FB6A4A04A9904294BF0022A4
:1057E0000122019001A8FFF7E1FD0A20FEF754FE17
:1057F00004A8FFF74FFE6348FEF754FE5920FEF75A
:105800004BFEB4F842506048FEF74CFE2846FFF7C6
:105810004FFE5E48FEF746FE9DF80C0010F00100BA
:1058200007D094F84430042B40F2368159481AF0DE
:10583000DEFA9DF80C3094F8442013F0010300F0D8
:105840002D810123013284F8442084F84630B0B120
:1058500050481AF0CCFA90B1B4F84250323DADB293
:10586000322D0CD929464B48A4F842501AF006FBB9
:105870005920FEF711FE29464548FFF72AFE464CFF
:1058800002A82146FFF77AFD029B013B033300F299
:105890008C809DF80C2094F84530910702D4520773
:1058A00040F10281013384F8453094F84530092BEA
:1058B00008D90A20FEF7F0FD5A20FEF7EDFD02A8F8
:1058C000FFF7B8FD9DF80C30DD0725D594F844307E
:1058D00013BB11F033FB2A4A04A9904294BF002263
:1058E0000122019001A8FFF761FD0A20FEF7D4FD17
:1058F00004A8FFF7CFFD2348FEF7D4FD5A20FEF79A
:10590000CBFDB4F842502048FEF7CCFD2846FFF707
:10591000CFFD1E48FEF7C6FD9DF80C0010F00100FB
:1059200007D094F84430042B40F2C3801A481AF090
:105930005EFA9DF80C3094F8442013F0010300F057
:10594000BA800123013284F8442084F8463060B3E1
:1059500011481AF04CFA40B3B4F84250323DADB29F
:10596000322D22D929460C48A4F842501AF086FA62
:1059700014E000BFE0310020B81D0020B42A002050
:10598000805101009E3503083EF9020861F90208C2
:1059900066F90208FC2A0020442B00205A20FEF75A
:1059A0007BFD29464B48FFF794FD4B4C02A821464E
:1059B000FFF7E4FC029B013B033359D89DF80C2010
:1059C00094F84530900701D451077AD5013384F813
:1059D000453094F84530092B08D90A20FEF75CFDC4
:1059E0004520FEF759FD02A8FFF724FD9DF80C3075
:1059F000DA0725D594F8443013BB11F09FFA374AE3
:105A000004A9904294BF00220122019001A8FFF74F
:105A1000CDFC0A20FEF740FD04A8FFF73BFD30480F
:105A2000FEF740FD4520FEF737FDB4F842502D4803
:105A3000FEF738FD2846FFF73BFD2B48FEF732FD09
:105A40009DF80C30DB0706D594F84430042B02D9BE
:105A500021481AF0CCF99DF80C3094F8442013F04A
:105A6000010332D00123013284F8442084F8463007
:105A700009B030BD002B3FF419AE013B14E6002005
:105A800058E6002A3FF464AE84F8443060E6002B08
:105A90003FF48BAE013B86E60020CAE6002A3FF4C5
:105AA000D6AE84F84430D2E6002B3FF4FEAE013B84
:105AB000F9E600203DE7002A3FF449AF84F844307E
:105AC00045E7002B85D0013B81E7002AD0D084F840
:105AD0004430CDE766F902086C2A002080510100AD
